:020000040800F2
:10000000D0290020CD010008BD0E00089D0D00087C
:10001000650E00088D030008933C000800000000F6
:10002000000000000000000000000000313C00085B
:1000300025050008000000002B030008311D000802
:10004000E7010008E7010008E7010008E7010008F0
:10005000E7010008E701000827050008E70100089C
:10006000E7010008E7010008E7010008E7010008D0
:10007000E7010008E7010008E7010008E7010008C0
:10008000E7010008E7010008E7010008E7010008B0
:10009000E7010008E7010008E7010008E7010008A0
:1000A000E7010008E7010008E7010008E701000890
:1000B000E7010008E7010008E7010008E701000880
:1000C000E7010008E7010008E7010008E701000870
:1000D000E7010008E7010008E7010008E701000860
:1000E000E7010008E7010008E7010008E701000850
:1000F000E7010008E7010008E7010008E701000840
:10010000E7010008E7010008E7010008E70100082F
:10011000E7010008E7010008E7010008E70100081F
:10012000E7010008E7010008E7010008E70100080F
:1001300000F002F800F03AF80AA090E8000C8244BF
:100140008344AAF10107DA4501D100F02FF8AFF29C
:10015000090EBAE80F0013F0010F18BFFB1A43F0A5
:1001600001031847A83D0000C83D0000103A24BF15
:1001700078C878C1FAD8520724BF30C830C144BF0C
:1001800004680C607047000000230024002500264E
:10019000103A28BF78C1FBD8520728BF30C148BFEA
:1001A0000B6070471FB51FBD10B510BD00F072F891
:1001B0001146FFF7F7FF03F07DFD00F090F803B460
:1001C000FFF7F2FF03BC00F097F8000009488047F2
:1001D00009480047FEE7FEE7FEE7FEE7FEE7FEE729
:1001E000FEE7FEE7FEE7FEE704480549054A064B41
:1001F00070470000913C000831010008D023002026
:10020000D0290020D0250020D025002072B67047CC
:1002100062B67047EFF3108072B6704780F31088B3
:10022000704730BF704720BF7047B0FA80F070470A
:1002300090FAA0F0B0FA80F0704790FAA0F0704702
:100240004FF0000200B5134694469646203922BF6F
:10025000A0E80C50A0E80C50B1F12001BFF4F7AFBA
:10026000090728BFA0E80C5048BF0CC05DF804EB9C
:10027000890028BF40F8042B08BF704748BF20F80A
:10028000022B11F0804F18BF00F8012B7047704708
:1002900070477047754600F02BF8AE46050069467A
:1002A000534620F00700854618B020B5FFF79CFFA5
:1002B000BDE820404FF000064FF000074FF0000867
:1002C0004FF0000B21F00701AC46ACE8C009ACE8E8
:1002D000C009ACE8C009ACE8C0098D46704710B54C
:1002E0000446AFF300802046BDE81040FFF767BF2B
:1002F000004870476C23002001491820ABBEFEE780
:10030000260002007047000018484FF0FF010170FE
:10031000002080F309881648016881F30888154891
:100320004FF08051016062B6FEE772B6EFF30980CC
:1003300028B1203880E8F00F0F490968086000B53F
:100340000E4880475DF804EB0D480E490A780270AC
:1003500009480D490A680260106890E8F00F2030E3
:1003600080F309884EF0040E62B6704722ED00E07B
:100370002C00002004ED00E0F8000020051A000821
:100380008A0000208B000020FC000020FEE7000017
:10039000054910B50020486000F0A6F800F006F806
:1003A000BDE8104000F086B8100000202DE9F041B3
:1003B000104D002427462C806C80AC60EC606C6192
:1003C000AC612C61FFF726FF804600266C6100F0CF
:1003D00049F800F057F86869761C36040744360C73
:1003E000F4D0C5E904744046AC61BDE8F041FFF7C4
:1003F00015BF00001000002003490969884201D997
:10040000401A7047002070471000002010B5FFF719
:1004100001FF04494C69FFF701FF2046BDE8104089
:10042000FFF7EABF1000002010B5FFF7EFFF04460A
:10043000FFF7F0FE034A00215161FFF7EFFE20466F
:1004400010BD00001000002010B5FFF7E3FE0449C6
:100450008C69FFF7E3FE2046BDE81040FFF7CCBFF4
:100460001000002010B5064C2088401C20806088B9
:1004700010B900F051F8A0606088401C608010BD89
:100480001000002010B50A4C6088401E0004000CCB
:1004900060800CD100F040F8E060A168401A61690A
:1004A000814200D26061A169814200D2A06110BD89
:1004B0001000002010B5FFF7ADFE0446FFF7D2FF95
:1004C0001021054800F0CFFCFFF7DCFF2046BDE817
:1004D0001040FFF7A3BE0000580900200149486002
:1004E0007047000010000020094810B5016841F075
:1004F00080710160074800214160016841F00101FD
:10050000016000F06BFABDE81040FFF7E7BF0000A4
:10051000FCED00E0001000E001484068704700007A
:10052000001000E0704710B500F0AEFD012000F0B3
:100530000FF8BDE8104000F0B7BD0000012803D15E
:100540000221024800F00CB970470000000C014085
:10055000044910B50A68024202D00860FFF7EEFFB6
:1005600010BD0000140401402DE9F84FDFF8C891D8
:10057000002409F1040A0AF1040B23460F270BF1AA
:10058000040ED1E00125A54006EA0502AA4276D173
:10059000DFF8A8C14E68A6EB0C0866452BD00DDC31
:1005A000032E34D005DC36B3012E19D0022E2FD104
:1005B0001BE0112E16D0122E2AD119E0B8F5881F93
:1005C00019D006DCB8F5803F15D0B8F5801F1FD1D3
:1005D00011E0B8F5001F0ED0B8F5041F18D10AE0DD
:1005E000CB6815E0CB681B1D12E0CB6808330FE029
:1005F000CB680C330CE08B682BB1012B4FF0080358
:1006000003D0456104E0042302E0056100E000231B
:10061000FF2A01D8064601E000F104064FEA8405EE
:1006200001D9A5F12005D6F8008007FA05FC28EAD3
:100630000C0803FA05F548EA0508C6F800804D687D
:10064000ED0070D53E4DAE6946F00106AE61AD6974
:1006500024F0030605F0010500953A4D06EB050C64
:10066000DCF80850A607360F07FA06F825EA080551
:10067000DFF8D480404503D14FF0000825E052E078
:10068000DFF8C880404502D14FF001081DE0DFF8D7
:10069000C080404502D14FF0020816E0DFF8B48078
:1006A000404502D14FF003080FE0DFF8AC80404531
:1006B00002D14FF0040808E0DFF8A080404502D1E5
:1006C0004FF0050801E04FF0060808FA06F848EA7E
:1006D0000508CCF808804D68D9F80060ED034D4658
:1006E00001D5164300E096432E604D68DAF80060AD
:1006F000AD03554601D5164300E096432E604D6884
:10070000DBF80060ED025D4601D5164300E096433C
:100710002E604D68DEF80060AD02754601D51643C7
:1007200000E096432E60641C0A681646E2407FF49F
:1007300029AFBDE8F88F000000040140000011104F
:10074000001002400000014000080140000C014080
:10075000001001400014014000180140001C01403D
:10076000C26821EA02030A4043EA0241016170477C
:100770000AB1016170470904FBE700000148806885
:100780007047000000000020074810B5016841F0E4
:1007900010010160032000F079F8032000F006F852
:1007A00000F024F8002010BD0020024070B50D4D6F
:1007B00004464FF47A712878B1FBF0F00A490968D1
:1007C000B1FBF0F000F0D6FA48B9102C07D20022A5
:1007D0002146501E00F03AF800206C6070BD0120E8
:1007E00070BD0000000000200C0000200E4808B57D
:1007F000816941F001018161816901F0010100918C
:10080000C16941F08051C161C06900F08050009021
:10081000052000F03BF80548416821F0E06141F017
:100820008061416008BD00000010024000000140EE
:10083000002809DB00F01F020121914040098000DF
:1008400000F1E020C0F8001170470000F0B40E4B3A
:100850001B680C46C3F30223C3F10705042D00D91E
:100860000425191D072901D2002300E0DB1E012603
:1008700006FA05F1491E214099409E40761E164019
:100880003143F0BC03F006BA0CED00E0064900F07D
:10089000070208684FF6FF03184040EA0220034AA7
:1008A00010430860704700000CED00E00000FA05FE
:1008B0002DE9F0470F46050061D0434E306800F047
:1008C0000700B84209D2306820F007003843306092
:1008D000306800F00700B84251D128683B4C8107CE
:1008E00012D5400703D5606840F4E0606060287866
:1008F000000703D5606840F4605060606068A968D4
:1009000020F0F000084360602878C00728D06868AD
:10091000012810D02168022810D0890700292EDA7A
:10092000616821F0030101436160FFF727FF804602
:1009300041F288390DE021688903EFE78901EDE78D
:10094000FFF71CFFA0EB0801494502D90320BDE8D1
:10095000F0876068696800F00C00B0EB810FEFD1A0
:10096000306800F00700B8420BD9306820F007006B
:1009700038433060306800F00700B84201D00120F1
:10098000E5E72878400705D56068E96820F4E0606D
:10099000084360602878000706D56068296920F45C
:1009A000605040EAC100606000F01EF86168084ACB
:1009B000C1F30311515CC84006490860064800684D
:1009C000FFF7F4FE0020C2E70020024000100240C2
:1009D000883E00080C000020040000200148006848
:1009E000704700000C00002012A185B00FC98DE8EF
:1009F0000F0014A0144A006804905168134801F0D5
:100A00000C03042B10D0082B0ED1C1F38343C90370
:100A10001DF803000AD5516804AAC1F34041515C96
:100A20000A4A5043B0FBF1F005B07047084948430B
:100A3000FAE7000002030405060708090A0B0C0D7B
:100A40000E0F1010010200000010024000127A0088
:100A500000093D002DE9F84F040070D02078C04D0A
:100A6000C00749D06868C0F38100012807D06868D2
:100A7000C0F38100022809D16868C00306D5286840
:100A8000800339D560680028E7D035E06068B0F5AC
:100A9000803F0BD010B1B0F5A02F11D0286820F402
:100AA00080302860286820F4802002E0286840F424
:100AB00080302860606890B1FFF760FE06460AE06B
:100AC000286840F480202860F0E700BFFFF756FE5A
:100AD000801B642873D828688003F7D50CE0FFF7E3
:100AE0004DFE064605E000BFFFF748FE801B642868
:100AF000F0D828688003F7D420789A4E80074FF00A
:100B000001094FF0000839D5686810F00C0F07D0C4
:100B10006868C0F38100022809D16868C00306D460
:100B20002868800714D52069012808D110E02069C1
:100B3000B0B1C6F80090FFF721FE074605E00AE1D4
:100B4000FFF71CFEC01B0228C4D828688007F7D511
:100B50002868616920F0F80040EAC10028600DE0D3
:100B6000C6F80080FFF70AFE074604E0FFF706FE1E
:100B7000C01B022823D828688007F7D420780007F4
:100B80002CD57948A169D9B1C0F80090FFF7F6FDDE
:100B9000074604E0FFF7F2FDC01B02280FD8686A81
:100BA0008007F7D571484FF4FA510068B0FBF1F0B7
:100BB000009000BF0098411E0091FAD20EE080E044
:100BC000C0F80080FFF7DAFD074604E0FFF7D6FD26
:100BD000C01B022875D8686A8007F7D420784007C0
:100BE00060D5E8690027C00008D4E86940F080506B
:100BF000E861E869012700F0805000905C480168D6
:100C0000C90513D40168834641F480710160FFF780
:100C1000B5FD824606E000BFFFF7B0FDA0EB0A007D
:100C200064284ED8DBF80000C005F5D5E06801283F
:100C30000AD008B1052813D0286A20F001002862E4
:100C4000286A20F0040002E0286A40F001002862CF
:100C5000E06841F2883B98B1FFF790FD82460BE0D7
:100C6000286A40F004002862EEE700BFFFF786FD27
:100C7000A0EB0A0159455AD8286A8007F6D50CE03E
:100C8000FFF77CFD824605E0FFF778FDA0EB0A0147
:100C900059454CD8286A8007F6D41FB1E86920F07E
:100CA0008050E861E06988B36968C1F38101022975
:100CB00044D00228C6F8608004D0FFF75FFD0446E8
:100CC00038E034E0FFF75AFD074604E0FFF756FD31
:100CD000C01B02282BD828688001F7D4206AB0F501
:100CE000803F05D16868A16820F40030084368603F
:100CF000D4E908010843696821F474110843686065
:100D0000C6F86090FFF73AFD044606E025E000BF14
:100D1000FFF734FD001B022809D828688001F7D5A9
:100D20001BE000BFFFF72AFD001B022802D90320A9
:100D3000BDE8F88F28688001F4D40EE00128F7D0D0
:100D40006868226A00F48031914204D1616A00F43B
:100D50007010884201D00120EAE70020E8E7000097
:100D60000010024000004242800442420C00002079
:100D70000070004010B5401EB0F1807F01D301200B
:100D800010BD4FF0E02460610F21601702F082FF78
:100D90000020A06107202061002010BDFEE70000B8
:100DA0000EB5094E02AC10254FF4FA7720213046DB
:100DB000FFF7D6FC0022CDE900543B461146104611
:100DC00000F0CAFEF2E70000000C014030B585B02B
:100DD000002000900190029003901E48816941F02C
:100DE00010018161816901F010010491816941F074
:100DF00004018161816901F004010491816941F07C
:100E0000080181618069144D00F0080004900122FE
:100E100023212846FFF7ACFC10480124CDE900400F
:100E20000220029069460E48FFF79EFB2320CDE981
:100E300000040320CDE9024069462846FFF794FBF1
:100E4000022211460620FFF701FD0620FFF7F0FC05
:100E500005B030BD00100240000C01400000111030
:100E600000080140FEE70A46002100F001B800003A
:100E700010B5002A21D000281FD000244FEA040317
:100E80005B1C41EA0424042BFAD310F0030305D1C0
:100E90000BE000BF521E00F8011B5B1C002A0CD0A7
:100EA000042BF7D301E010C0121F042AFBD202E08A
:100EB00000F8011B521E002AFAD110BDFEE7704750
:100EC00002480068002800D000477047400000201A
:100ED00010B5044600F0BEF8464800210A22017011
:100EE000454801704548017045480160454801602A
:100EF000454801704548017045480170454801600A
:100F00004548016045480160454801704548006812
:100F1000B0FBF2F0444A1060444A106830B14448D3
:100F2000006818B1126802C0521EFCD1414801602D
:100F30004148016041480160414801604148016009
:100F400041480160414801604148017001F0F4FBF3
:100F500001F0A6FC204600F005FF2088002847D1BC
:100F6000204601F0F9F92088002841D1204601F0FF
:100F7000FFF9208800283BD1204601F093FA208811
:100F8000002835D1204601F0FDFB208800282FD114
:100F9000204601F0ADFD2088002829D1204602F02E
:100FA00019F82088002823D1204601F049F920882B
:100FB00000281DD1204600F0E1FF2088002817D12D
:100FC000204602F073FC2088002811D1204601F051
:100FD0005FFF208800280BD1204602F0BBFC208850
:100FE000002805D100F0BCFEBDE81040FFF767BF48
:100FF00010BD0000540000205C000020A400002070
:10100000F8000020FC0000208A0000208B00002057
:101010008C000020980000209C000020A0000020F0
:10102000AC000020E03E0008A8000020BC3E000804
:10103000B83E000834000020380000203C000020AA
:101040004000002044000020480000204C00002008
:10105000DA00002030B5094B0020094A044619681F
:1010600001E010C1401C1568A842FAD31868054970
:1010700000EB8500001F086030BD0000B83E00088E
:10108000BC3E00082C00002005480078012805D14E
:1010900004490878FA2801D2401C08707047000003
:1010A0005C000020540000201A4810B50078012888
:1010B0002FD1FFF7AFF8184A0446117829B1491E1D
:1010C00011F0FF00107022D103E0BDE81040FFF7DF
:1010D000A5B812480078D0B901F01CFB104908707F
:1010E000104900EB400051F820100F4801600F48F4
:1010F000006881420BD051F8900F401C08600C48EA
:101100000168491C01600B494FF08050086020467F
:10111000DBE710BD5C00002054000020A40000208C
:101120008B000020941F0020FC000020F80000200D
:10113000D000002004ED00E0164810B5007800282B
:1011400026D115480078002822D1FFF763F804461D
:1011500001F0E0FA11490870114900EB400051F824
:101160002000104908601049096888420BD050F8E7
:10117000901F491C01600D480168491C01600C4921
:101180004FF0805008602046BDE81040FFF746B899
:1011900010BD000054000020A40000208B0000209F
:1011A000941F0020FC000020F8000020D000002048
:1011B00004ED00E070B504461248007810B146F620
:1011C00062501DE010480078012802D045F6896081
:1011D00016E00E4D2878FA2802D345F209200FE0D8
:1011E000FFF718F80646FFF73DF92878401C2870ED
:1011F00001F01EFCFFF746F93046FFF70FF800201C
:10120000208070BD540000205C000020A40000205D
:1012100070B504461848007810B146F6655029E0CC
:1012200016480078012802D045F6896022E0144D66
:10123000287890B1FEF7EEFF0646FFF713F92878FD
:10124000401E10F0FF0028700AD0FFF71BF930464F
:10125000FEF7E4FF46F663500CE046F6645009E002
:1012600001F0F4FBFFF70EF93046FEF7D7FFFFF76A
:1012700063FF0020208070BD540000205C0000202F
:10128000A400002070B50F4D0446287818B145F62B
:101290008A60208070BD01F03DFA0B4908700B494F
:1012A00008700B4900EB400051F820000949086024
:1012B0000949086001202870FFF726F843F69920B5
:1012C000E7E700005C0000208B0000208A0000207F
:1012D000941F0020FC000020F80000202DE9F041C0
:1012E0000646FEF797FF0546FFF7BCF82E48002498
:1012F00004602E4804802E4804802E4804602E4846
:1013000004602E4804602E4804602E4804602E4875
:101310000481FFF7B7F82846FEF780FFFEF77AFF53
:101320000746FFF79FF82948056818E0FEF772FFA7
:101330000746FFF797F8C5F8B440C5F8B84045F838
:10134000784F2C63AC61AC82EC826C62AC62FFF7CC
:10135000E3F845F8200FA5F134008481AD6AFFF76A
:1013600091F83846FEF75AFF002DDFD1FEF752FF05
:101370000746FFF777F81648056806E0FEF74AFFCC
:101380000746FFF76FF8AC85AD69FFF77BF8384685
:10139000FEF744FF002DF1D102F0A2F902F0A8FB04
:1013A0003480BDE8F0810000700000206A00002059
:1013B000BA000020CC000020E0000020E80000205F
:1013C000580000209C000020881F0020D40000202E
:1013D0009000002002480068002800D000477047B5
:1013E000440000202DE9FF4F83B004467248DDE938
:1013F0001785DDE910960078DDF854A0139F10B131
:1014000047F24A102AE04CB1059850B166B16B48DA
:10141000006887420BD246F630601FE047F2AD10FD
:101420001CE047F24F1019E046F62F6016E01298C4
:10143000B84202D346F6316010E046F27320B9F1AB
:10144000200F0BD25FEA090103D0B9F11F0F02D0C0
:1014500008E05B4900E05B498C4203D0288007B07C
:10146000BDE8F08F204601F0C5FD4FF0000BA5F858
:1014700000B05FEAC8700AD05FEA887007D53046CE
:1014800000215A4601E004C0491CB942FBD312981E
:10149000CDE9007806EB8005DDE905012B463246F3
:1014A00000F078FA0599A1620699E1620499216237
:1014B00084F83790C4F854A0A56020605FEA0A0061
:1014C00024D0A0651698A76366626060A4F83C808B
:1014D0000020594604EB8002401CD16710F0FF0049
:1014E000F8D004F16400149900F090FF204600F059
:1014F00075F8FEF78FFE0646FEF7B4FF324D2878EA
:10150000401CC0B22870012803D004E02F480068B6
:10151000D7E701F08DFAFEF7B5FF3046FEF77EFE05
:1015200094F8370001F00EF9204601F0FFF920464B
:1015300001F022FD26490888401C088025480078D3
:10154000012821D0FEF766FE0446FEF78BFF2878BF
:10155000401E10F0FF0129700ED101F077FA1E48ED
:10156000008848B1FEF78EFF2046FEF757FE07B011
:10157000BDE8F04F01F038BAFEF784FF07B020460F
:10158000BDE8F04FFEF74ABEFEF744FE0446FEF704
:1015900069FF2878401E10F0FF01297001D101F089
:1015A00055FAFEF76FFF2046FEF738FE07B0BDE89C
:1015B000F04FFFF7C1BD000054000020DC3E0008E2
:1015C000C01E0020F81D0020A4000020A80000205C
:1015D000D80000205C000020680000200249096853
:1015E000002900D008477047340000202DE9F04161
:1015F000044652480E46007810B147F24E100AE0F9
:101600004F48844202D147F24C1004E04D488442D6
:1016100004D147F24D100880BDE8F0815CB9FEF7B7
:10162000F9FD0546FEF71EFF47480468FEF72AFF4E
:101630002846FEF7F3FDFEF7EDFD0746FEF712FF25
:10164000424D2878401CC0B22870012801D101F019
:10165000EFF9FEF717FF3846FEF7E0FD94F8360085
:1016600008283DD2DFE800F004080C0C1C080C0C24
:10167000204601F08FF913E0204602F015F80FE044
:10168000204602F011F894F83400072808D2DFE869
:1016900000F00704070404040400204600F0ADFF36
:1016A00004F1640000F098FE204600F055F8204652
:1016B00001F074FC26490888401E0880204601F08D
:1016C00099FCFF2084F83600FEF7A4FD0446FEF7DF
:1016D000C9FE2878401E10F0FF00287021D022E0BB
:1016E000FEF798FD0446FEF7BDFE2878401E10F078
:1016F000FF0028700CD101F0A9F91648008838B114
:10170000FEF7C0FE2046FEF789FD01F06DF904E00A
:10171000FEF7B8FE2046FEF781FD46F62D603080CC
:101720007AE701F093F9FEF7ADFE2046FEF776FD6D
:1017300000203080BDE8F041FFF7FEBC54000020DF
:10174000F81D0020C01E0020F8000020A40000208A
:10175000D80000206800002002490968002900D054
:10176000084770473800002002490968002900D066
:10177000084770473C0000202DE9F0478146574854
:1017800014461E460078884610B146F2AE1006E0B8
:10179000080006D0B1F5004F03D045F6256018804B
:1017A0003DE0002704B12760FEF734FD8246FEF7D6
:1017B00059FE4B4D2968486CD8B1401E804648649C
:1017C0000CB1086C2060FEF7A7FE29680A6C801A2D
:1017D000C1F8A400D1F8A820824201D2C1F8A80023
:1017E000FEF750FE5046FEF719FD37804046BDE833
:1017F000F0875FEA084007D5FEF744FE5046FEF743
:101800000DFD46F2B01009E03648017849B1FEF707
:1018100039FE5046FEF702FD46F663503080002048
:10182000E5E701218046017001F002F9FEF72AFE8A
:101830005046FEF7F3FC00214B460722084600F015
:101840003DFEFEF7E7FC8146FEF70CFE98F800101F
:10185000491E11F0FF0188F8001001D101F0F6F8DF
:10186000FEF710FE4846FEF7D9FCFFF765FCFEF7D1
:10187000D1FC8046FEF7F6FD286890F8351031B1AE
:10188000012916D003291AD046F62E601BE074B148
:10189000006C2060FEF740FE29680A6C801AC1F8CF
:1018A000A400D1F8A820824201D2C1F8A800378054
:1018B0000AE00CB1006C206046F2A91003E004B10C
:1018C000276047F2D92030802868446CFEF7DAFDA3
:1018D0004046FEF7A3FC204689E7000054000020A4
:1018E000F8000020A40000202DE9F0470546274815
:1018F00016460F4600781C4610B147F259100AE010
:1019000046F2D5203FB136B1FEF784FC8146FEF7A2
:10191000A9FD1DB104E01880BDE8F0871C480568EA
:101920004FF00008286858B195F83C00C00713D064
:10193000FEF7A8FD4846FEF771FC0020696A1AE030
:10194000FEF7A0FD4846FEF769FCC7F8008047F2A5
:101950005210C6F800800AE0FEF794FD4846FEF7F4
:101960005DFCC7F8008047F25410C6F80080208064
:10197000D2E7401C091D0A68002AFAD03860A96B1A
:10198000081A3060A4F80080C6E700005400002068
:10199000F800002010B5029C02EB84024FF0807426
:1019A00042E90204164842F80C0C4FF0123042F89B
:1019B000100CA2F114004FF0023240E903134FF073
:1019C000113140F8101CD10040F8141C4FF00931BF
:1019D00040F8181C910040F81C1C4FF007314FF0E4
:1019E000033440F8201C610040F8241C4FF00531FE
:1019F00040F8281D5100C0E9092440F8041D10BD1D
:101A00001D33000870B51548006800B18047FEF727
:101A100083FD134C134A21681268914207D0D1F814
:101A20009830C31A41F8943F8D682B448B60C2F8FC
:101A30009800FEF7F9FC2168D1F8B420824201D267
:101A4000C1F8B400084AD1F8B8301068834201D216
:101A5000C1F8B8000020106070BD000048000020F0
:101A6000F8000020FC000020A00000202DE9F0413B
:101A7000804636480F461546007810B147F275206B
:101A800020E0334C207810B146F663501AE047B19D
:101A9000022F06D0042F07D0082F02D045F625606C
:101AA00010E0B8F1000F0BD0FEF7B4FB0646FEF7CE
:101AB000D9FC2078401CC0B22070012805D006E077
:101AC00047F27E201080BDE8F08100F0B1FFFEF704
:101AD000D9FC3046FEF7A2FB1E4E01212B46306892
:101AE0003A4680F83610414601F072FD288898B1D8
:101AF000FEF790FB0546FEF7B5FC2078401E10F07F
:101B0000FF01217001D100F0A1FFFEF7BBFC2846C8
:101B1000BDE8F041FEF782BB306800F03BFFFEF706
:101B200079FB0646FEF79EFC2078401E10F0FF0071
:101B3000207001D100F08AFFFEF7A4FC3046FEF7CA
:101B40006DFBFFF7F9FA00202880BCE75400002065
:101B5000A4000020F80000202DE9F0475C4EDDE9EC
:101B60000854367816B147F27520ABE0DFF864A16F
:101B70009AF8006016B146F66350A3E015F00E0621
:101B800047F27E2945F6256705D0022E03D0042EA4
:101B900006D0082E07D11BB912B909B900287DD08B
:101BA00035F01E0C02D02780BDE8F087C5F3001584
:101BB00047F2792C47F278284FF47A773DB142F218
:101BC0000F75A94212D900BFA4F800C0ECE7BB42D0
:101BD00002D347F27B2075E03B2A02D947F27A20F4
:101BE00070E03B29F0D8632802D804E0B84202D361
:101BF000A4F80080D8E7384D4FF4FA7CC1EB01110E
:101C00002D68BCFBF5FC63446B43B3FBF7F34FF467
:101C10006167784300EB8100104400FB0537EFB3A8
:101C2000FEF7F8FA8046FEF71DFC9AF800005546CC
:101C3000401CC0B28AF80000012801D100F0F8FE73
:101C4000FEF720FC4046FEF7E9FADFF8908001211C
:101C50002346D8F80000324680F83610394601F0A5
:101C6000B7FC208898B1FEF7D5FA0446FEF7FAFBD8
:101C70002878401E10F0FF01297001D100F0E6FE27
:101C8000FEF700FC2046BDE8F047FEF7C7BAD8F8DB
:101C9000000000F07FFEFEF7BDFA00E014E006460B
:101CA000FEF7E0FB2878401E10F0FF00287001D1FD
:101CB00000F0CCFEFEF7E6FB3046FEF7AFFAFFF78A
:101CC0003BFA002020806FE7A4F800906CE700004A
:101CD00054000020A4000020E03E0008F80000208E
:101CE00000B585B000F01CF8FEF716FC04AA002130
:101CF00003920091CDE901100648074900230078BE
:101D00001A4600EB400001EB8001044800F06AF93C
:101D100005B000BD8A000020941F00205449434BA9
:101D200002480068002800D0004770474C0000209F
:101D300010B5FEF76FFA0446FEF794FB07490878E2
:101D4000401C0870FEF79EFB2046FEF767FAFFF77F
:101D5000C7FFBDE81040FFF7A7B9000054000020FE
:101D600070470000034A00211160034A118001807E
:101D70007047000074000020780000202DE9F05F1B
:101D80009A4690460D4604460A9FFEF743FA83465C
:101D9000FEF768FB5FEA080024D0012807D0B0F501
:101DA000004F1FD06FF4004118EB010F12D1206AD1
:101DB00030EA0500C4E9080A208A04F108064FF059
:101DC000000990B14D4D2878401CC0B22870012800
:101DD00015D016E0FEF756FB5846FEF71FFA45F6FB
:101DE00025606CE0206A2843E4E7FEF74BFB584689
:101DF000FEF714FAA7F80090206ABDE8F09F00F003
:101E000017FEFEF73FFB5846FEF708FA366833E048
:101E100090F88810766801F00F0101291BD0022983
:101E200021D004290DD0082910D0FEF7F3F904467B
:101E3000FEF718FB2878401E10F0FF0028702AD00B
:101E400036E0216AD0F88020114009E0216AD0F8FC
:101E5000802011400BE0D0F88010236A0A46994395
:101E60008A4205D007E0D0F88010226A914311B170
:101E7000524600F047F816B1B0680028C8D1FEF706
:101E8000C9F90646FEF7EEFA2878401E10F0FF006A
:101E9000287017D018E000F0D9FD1948008838B133
:101EA000FEF7F0FA2046FEF7B9F900F09DFD04E0D8
:101EB000FEF7E8FA2046FEF7B1F943F6FF20388036
:101EC00000209AE700F0C2FDFEF7DCFA3046FEF78C
:101ED000A5F95FEA084001D4FFF72EF9FEF79AF959
:101EE0000546FEF7BFFA246AFEF7CCFA2846FEF74D
:101EF00095F9A7F8009020467FE70000A400002095
:101F00006800002070B50025C0F8841080F83550B6
:101F100080F834500446026490F8360008280ED247
:101F2000DFE800F00D0D04040D0D0A0A204601F053
:101F300067F984F8365002E0042084F83600204621
:101F4000BDE8704000F059BB0A4C0B4DFEF762F93A
:101F50000646FEF787FA2068401C20602868401C6F
:101F60002860FEF78FFA3046FEF758F9FEF7A8FF13
:101F7000ECE7000050000020BC00002000B50E4A35
:101F800089B0002111600B2205910691CDE907204F
:101F90000A480B4A0B4B006812681B680292CDE995
:101FA00003011F20CDE900030023074A07A10C48C5
:101FB000FFF718FA09B000BD50000020A03E00084D
:101FC0009C3E0008983E0008491F000875432F4FAB
:101FD000532D4949492049646C65205461736B0055
:101FE000F81D00202DE9F84F1D46DDE90CB4DDE9B0
:101FF0000AA916460F468046FEF70CF90090FEF738
:1020000031FA1D481D4A0188128891422DD2491C7F
:1020100089B201801A4802888A4200D20180194997
:102020000868C0F80080C0E902760582C0F814A0F4
:10203000A0F81890C0F81CB0406808601248012150
:102040000181124901604160002000F07BFB1048D3
:10205000007808B10F49087000202080FEF712FABE
:102060000098BDE8F84FFEF7D9B80B490888401C26
:10207000088044F25360F0E768000020A83E0008A2
:102080006A00002060000020941F0020C01E002075
:102090008A0000208C0000206C0000203EB5374CE8
:1020A000374B02A920680268D51A9A4245D015DC40
:1020B000344BD2182DD0344BD21822D0334BD218F7
:1020C00032D0334BDA4208D1C269CDE90021038B0B
:1020D000028AC168806800F0F1FF3EBD2D4AAA184F
:1020E0001ED02D4BD21824D02C4BDA42F5D1C26928
:1020F000CDE90021038B028AC168806800F04EFBA5
:102100003EBD0091028BC36941698068FFF736FECE
:102110003EBD018BC269806802AB00F0F5FC3EBD9C
:10212000806801F07BF83EBD018BC269806802AB1C
:1021300021E0806801F0C2F93EBD194819490078D4
:1021400000EB400001EB800000F09EFC206802AB39
:102150000021C269144801F0EDF814480168491ED5
:102160000160E9D1124909680160FEF7D5F902461C
:1021700002AB00210F4801F0DDF83EBD64000020F5
:102180005449434BADBAB2BE0DF90BFAF2F8F7FF62
:102190000006F6FF00F7FDF700FFEFFF03FE0FFE5E
:1021A0008C000020941F0020DC210020F40000207F
:1021B000F0000020A42200201D4D1E4C1E4E00BF2A
:1021C000FEF728F80746FEF74DF9208808B3FEF71A
:1021D00059F93846FEF722F8FEF79EF90746FFF751
:1021E0005DFFFEF799F92968C01B814200D2286083
:1021F000FEF710F80746FEF735F9306840683060A2
:102200002088401E2080FEF73DF93846FEF706F88C
:10221000D6E70A49002008810860486000F0A2FA69
:10222000FEF730F93846FDF7F9FFFEF785FFC5E701
:10223000700000206800002064000020941F00202F
:10224000F0B52F492F4D89B000220A80296831B19D
:102250002D4E3188022905D244F2546135E044F212
:10226000526132E029490023294F0A60296801F1AF
:10227000200410E041F8087B5B1C41F8082B9BB25E
:1022800041F8042C21F8102B41F80C2C21F8082CD3
:1022900041F81C4C2034B6F800C06345EAD32B68E3
:1022A00041F81C3C1B490B601B490B601B490A8011
:1022B0001B490A801B490B6853B11B4B1B4D1C6803
:1022C0002D68AC4207D244F25661018009B0F0BDDE
:1022D00044F25561F9E7032405920692CDE90740DF
:1022E0001868134B09681B68CDE903020092CDE919
:1022F000011300230F4A10A11648FFF773F8E5E712
:102300006C000020A43E0008A83E000870000020D9
:102310004E4F4E4560000020640000206800002001
:102320006A000020AC3E0008B43E0008DC3E000815
:10233000B03E0008B921000875432F4F532D49497D
:102340004920495352205175657565205461736B5E
:1023500000000000C01E0020034A00211160034A53
:1023600011800180704700007C0000208000002068
:10237000F0B5164C216859B1154E318859B189B262
:10238000491E22688FB2002502F1100329460EE093
:1023900045F21E7118E045F21D7115E0E2E80231C8
:1023A0006D1C22F8081BADB242F8041C1033BD426C
:1023B000F4D3116051601181D160064A2368136023
:1023C00033889380D18011810180F0BDC43E000824
:1023D000C03E0008881F002010B5428992B10A490A
:1023E00003680C681C6043680B60CB8844891B1B26
:1023F000CB808B88448923448B800021418181815B
:1024000001604160104610BD881F0020018100213D
:10241000418181810160416070470000F0B54489CD
:10242000DDE905E70589AC4202D346F293501EE090
:102430001B4DAE88CEB12C68761ED4F800C0C5F80E
:1024400000C0AE80EE88761CB6B2EE80B5F808C04B
:10245000B44500D22E814689002556B1DB060ED444
:1024600003681C60046025600CE045F21D70388034
:10247000F0BD0460012344604381256005E04368AA
:102480002360446043895B1C4381868943899E4263
:1024900000D2838161602281C4F80CE03D80F0BDF0
:1024A000881F0020034A00211160034A1180018027
:1024B0007047000084000020880000202DE9F041D2
:1024C000114D07460C4628680026194680F834202E
:1024D00080F8356000F03AFD64B1FC6004F1080654
:1024E00001223946286800F011F83946304600F0DC
:1024F00057F802E02868C687066320462968BDE8C9
:10250000F04100F01BB80000F800002010B5C287B1
:102510000024234601630EE04B6041F8103B641C2D
:1025200041F8103BA4B241F80C3C21F8083C41F8BA
:10253000043C41F8180C9442EED310BD38B1426807
:10254000C1F8C42081688968096AC161704791F83F
:102550003400022803D0072803D004A002E004A01E
:1025600000E005A0C1F8C400704700002000000092
:102570005461736B205100005461736B2053656D7F
:102580000000000005A2C1F8C420816811B189686B
:10259000096A00E001A1C16170470000200000004D
:1025A00030B58A68002392F8374002891AB1521C6C
:1025B000028102680BE0012202814B600B60016026
:1025C00014E0956895F83750A54203D85268002A60
:1025D000F7D107E032B1146854B1C1E9004261603B
:1025E000116030BD4B6042680A605160416030BD8F
:1025F0001160C1E90032016030BD70B50646C48F7C
:10260000056B07E0E8682946083000F009F8641E09
:10261000A4B22035002CF5D10020F087306370BDC6
:1026200010B502890023012A0BD00A6862B14C68F8
:1026300074B1546022600289521E02814B600B60AB
:1026400010BD03604360F6E74A6813600260F2E77A
:1026500053604260EFE7F8B50C46064691F8361035
:102660000025069808293BD2DFE801F03A3A040435
:102670003A3A202094F83410032911D0E265A4F8E6
:102680006030206436B12046FFF7B7FF2146304660
:10269000FFF778FF204600F0B3FD84F836501BE0CA
:1026A00000902146304600F022F8EBE794F8341011
:1026B000032916D0E265A4F860302064204600F0BB
:1026C000F3FF36B12046FFF798FF21463046FFF76B
:1026D00059FF042084F8360084F8355084F83450CB
:1026E000F8BD00902146304600F001F8E6E770B5ED
:1026F0000C6B049DC98F0AE0E668864204D1C4E9E8
:1027000004022383E56170BD491E89B2203400298B
:10271000F2D170BD10B50024064802E02034E4B2C6
:10272000001D01680029F9D00846FDF77EFD204410
:10273000C0B210BD30000020014900200860704781
:102740003000002000F01F0241090120C2F11F02E9
:102750009040034A52F82130034342F82130704739
:102760003000002000F01F0241090120C2F11F02C9
:102770009040034A52F82130834342F82130704799
:1027800030000020034A00211160034A11800180BB
:102790007047000090000020940000202DE9FF4FBA
:1027A00083B01F46DDE9109A93460646FDF732FDD9
:1027B0000546FDF757FE384C2078401CC0B220700B
:1027C000012801D100F034F9FDF75CFE2846FDF741
:1027D00025FD358A06F108001DB1B90530D5006820
:1027E0003CE0F80601D4002300E01023CDE9009A74
:1027F0005A4606F120000499FFF710FEFDF70AFD86
:102800000546FDF72FFE2078401E10F0FF012170D5
:102810000ED100F01BF92148008848B1FDF732FEC7
:102820002846FDF7FBFC07B0BDE8F04F00F0DCB830
:10283000FDF728FE07B02846BDE8F04FFDF7EEBCD7
:10284000006801255B46D0E90181CDF80090304653
:10285000049AFFF700FF6D1E4046ADB2002DF1D186
:10286000FDF7D8FC0546FDF7FDFD2078401E10F071
:10287000FF00207001D100F0E9F8FDF703FE2846C3
:10288000FDF7CCFC380401D4FEF756FC0021AAF871
:10289000001007B0BDE8F08FA40000206800002001
:1028A0000020074B014600BF00EB400203EB820211
:1028B000401C11811160C0B251602028F4D37047D0
:1028C000941F002010B5044690F83700FFF73AFF38
:1028D000074994F8370009788842204603D1BDE8BB
:1028E000104000F023B8BDE8104000F003B800002D
:1028F0008A00002090F837100B4A01EB410102EBEF
:10290000810100220B8943B15B1C0B810B68C0E97C
:1029100003320A6810610860704701230B81C260AE
:102920000261086048607047941F002090F83710DB
:102930000A4A01EB410102EB810100220B893BB104
:102940005B1C0B81C2604A680261D06048607047BE
:1029500001230B81C26002610860F7E7941F002029
:1029600010B50289002A14D0012A12D00021022AAF
:1029700007D0D0E90024D3681961C2E90314E260EA
:1029800005E0D0E90023C2E90313C3E90321C0E94C
:10299000003210BD70B5054690F83700114900EBC4
:1029A000400001EB8001D5E90302002442B10B890C
:1029B0005B1E0B81D06090B102612C61EC6070BD38
:1029C00028B10A89521E0A8104610860F5E70C816A
:1029D0000C604C6095F83700FFF7C4FEEDE74A60E5
:1029E000EBE70000941F002010B5FDF713FC0B4A25
:1029F000002111700B4A0A49116051F8902F521CA6
:102A00000A6009490A68521C0A60084A4FF080515E
:102A10001160BDE81040FDF701BC00008B000020F4
:102A2000C01E0020FC000020D000002004ED00E0CB
:102A3000044810B50078012803D1FDF76DFD024967
:102A4000086010BDA4000020980000200A4810B5BE
:102A5000007800280ED1FDF75FFD08490968401A8B
:102A600007490A68824200D2086006490A68824221
:102A700000D2086010BD0000A400002098000020D3
:102A80009C000020A000002070B504461448007887
:102A9000012824D1FDF7BEFB0546FDF7E3FC2168C4
:102AA000B1B11048814213D08A6D12B1521E8A65AD
:102AB0000ED1208902280BD30B48007840B920465C
:102AC000FFF74EFF2068416D09B908490968816523
:102AD000FDF7D8FC2846BDE87040FDF79FBB70BDF0
:102AE000AC000020F81D0020A4000020A800002059
:102AF000034A00211160034A1180018070470000E1
:102B0000B0000020B40000202DE9F84F1E4690468A
:102B100089460446FDF77EFB0090FDF7A3FC208A62
:102B200004F108074FF0000B50B1DFF8BCA09AF891
:102B30000010491CC9B28AF8001001291AD01BE004
:102B4000256A681C0CD06D1CC4E90858FDF79AFC76
:102B50000098FDF763FBA6F800B02846BDE8F88FA3
:102B6000FDF790FC0098FDF759FB46F6C550308004
:102B70000020F3E7FFF75CFFFDF784FC0098FDF70A
:102B80004DFB5FEA895002D53D893F680CE03F6804
:102B900001250023B9687F681A462046CDF80080D9
:102BA000FFF759FD6D1EADB2002DF2D1246AFDF77D
:102BB00031FB0546FDF756FC9AF80000401E10F068
:102BC000FF008AF8000001D1FFF740FFFDF75AFC33
:102BD0002846FDF723FB5FEA094001D4FEF7ACFA73
:102BE000A6F800B02046B9E7A40000200EB5964C28
:102BF000964E2068450004E028466A460021FEF70C
:102C000035FF30780128F7D16846FEF767FB90481A
:102C100022680168914206D90A462168B2FBF1F1A7
:102C20005FEA010803D100680A21B0FBF1F8DFF880
:102C300024B2894F42F2107A5FF00006FDF76CFC77
:102C40000190FDF701FC85490860FDF7E3FA0546B0
:102C5000FDF708FC8248834C016821600660FDF79F
:102C600011FC2846FDF7DAFA7F48236802689A4289
:102C70002BD97E48824202D25046012115E07C4881
:102C8000824203D24FF47A700A210EE079488242E0
:102C900002D26420014608E07748824203D20A202B
:102CA0004FF47A7101E001205146B2FBF1F1584333
:102CB000B0FBF1F0AAEB0000704980B2ABF8000065
:102CC0000A88824203D2088001E0ABF800A0FEF738
:102CD00081FB0024FDF79EFA8146FDF7C3FB3D68AA
:102CE00042E000BFFDF796FA0290FDF7BBFBDFF86C
:102CF000909199F80010491CC9B289F80010012977
:102D000001D1FFF795FEFDF7BDFB0298FDF786FAAE
:102D1000D5F89C00C5E92760FDF77CFA0290FDF725
:102D2000A1FB99F80010491E11F0FF0189F800106D
:102D30000CD1FFF78BFE5348008838B1FDF7A2FB9A
:102D40000298FDF76BFAFFF74FFE04E0FDF79AFBE0
:102D50000298FDF763FA55F8A00F0444FDF75AFAFC
:102D60008146FDF77FFB2D6AFDF78CFB4846FDF79A
:102D700055FA002DB6D12CB33C48844202D25546B8
:102D8000012015E03A48844203D24FF47A750A20B4
:102D90000EE03848844202D26425284608E03648CE
:102DA000844203D20A254FF47A7001E0012550468F
:102DB000B4FBF0F08146FDF72DFA0290FDF752FBCF
:102DC0003C6822E000250120F4E700BFD4F8A00011
:102DD0006843B0FBF9F080B2504500D95046A4F8E2
:102DE0008C00B4F88E10814201D2A4F88E0004F158
:102DF000AC026B46111D2046FEF776FDFDF70AFA80
:102E00000290FDF72FFBD4F8C040FDF73BFB029882
:102E1000FDF704FA002CD9D11B480178012903D110
:102E200006706846FEF75AFAFDF776FB0199401ADC
:102E300016490A68824200D208606A46002140466C
:102E4000FEF714FEFAE60000CC3E0008C8000020A1
:102E5000E03E0008B8000020D40000205800002008
:102E6000BC000020C4000020C0000020801A060022
:102E700000093D00005A62020084D717BA00002002
:102E8000A400002068000020B6000020CC00002034
:102E900030B51D4A89B0002111601C4A11601C4ADE
:102EA00011601C4A11701C4A11701C4A136843B10E
:102EB0001B4B1C4D1C682D68AC4205D246F62C619C
:102EC00008E046F62B6105E0174C25781F2D04D34A
:102ED00046F62A61018009B030BD032505910691AF
:102EE000CDE9075011481B6812680068CDE9012040
:102EF000CDE903312078009000230D4A0DA112483E
:102F0000FEF770FAE7E70000BC000020C4000020D4
:102F1000C0000020C8000020B6000020D03E0008FD
:102F2000D83E0008DC3E0008C83E0008D43E000839
:102F3000ED2B000875432F4F532D494949205374F9
:102F40006174205461736B001421002038B504466D
:102F5000022531B16B46022200F03AFBBDF80000B9
:102F600028B184F836502046FFF714FD38BD032001
:102F700084F83600F7E70000074B0022C0F8BC20B9
:102F8000196829B1C0F8C010C1F8BC0018607047BA
:102F9000C0F8C020FAE70000D4000020D0E92F21BB
:102FA00000234AB181B1C2F8C010C1F8BC20C0F8FA
:102FB000C030C0F8BC307047054A116009B1C1F893
:102FC000BC30C0F8C0307047C2F8C030F1E7000034
:102FD000D4000020044A00211160044A1180044AF0
:102FE0001160018070470000D4000020D80000204C
:102FF000D000002070B50025056085604560C56083
:10300000056145610446856129A0C4E907506562F0
:10301000A562E5622563E5872564E565A4F860504F
:10302000002104F16400FFF7F1F96567A567C4F8B2
:103030008050A4F888500020C4F8845004EB80012C
:10304000401CCD6710F0FF00F8D06564C4F8A450B0
:10305000C4F8A850A56384F88A50C4F8B050C4F8E6
:10306000AC50A5874FF00040C4E9120525656565A1
:10307000A565A4F88C50A4F88E50C4F89050C4F8FC
:1030800094503434FDF748FAC4E91905C4F8805067
:10309000C4F8845004F8015B202004F8015B04F8B4
:1030A000015B04F8850B04A020C4C4E9005070BD86
:1030B0003F5461736B000000200000002DE9FC5FAD
:1030C0009946DDE90C7692468B460546FDF7A2F857
:1030D0008046FDF7C7F9474C2078401CC0B22070ED
:1030E000012801D1FFF7A4FCFDF7CCF94046FDF71C
:1030F00095F80DB9404805680020308095F83600F5
:10310000DFF8F880082852D2DFE800F00404262611
:1031100004042626CDE900764B465246594605F171
:103120006400FFF77BF9FDF775F80546FDF79AF99E
:103130002078401E10F0FF01217031D1FFF786FC8E
:10314000B8F8000060B3FDF79DF92846FDF766F872
:10315000BDE8FC5FFFF748BC95F834000228D9D1E0
:1031600053465A46294600200097FFF774FAFDF7A8
:1031700051F80546FDF776F92078401E10F0FF0162
:10318000217001D1FFF762FCFDF77CF92846FDF7BD
:1031900045F85FEA09402AD4BDE8FC5FFDF7CCBFE3
:1031A000FDF770F92846BDE8FC5FFDF737B8FDF77D
:1031B00031F80546FDF756F92078401E10F0FF0063
:1031C00020700CD1FFF742FCB8F8000038B1FDF7D1
:1031D00059F92846FDF722F8FFF706FC04E0FDF751
:1031E00051F92846FDF71AF846F62D603080BDE803
:1031F000FC9F0000A4000020F800002068000020D0
:1032000010B5044600F050FA94F83600400704D494
:103210002046BDE81040FFF755BB10BD2DE9F04139
:103220000D460446FCF7F6FF0746FDF71BF900269E
:103230002E8094F83600082864D2DFE800F00404F9
:1032400004040D394955FDF71DF93846FCF7E6FF32
:1032500047F25310288037E02F4D2878401CC0B229
:103260002870012801D1FFF7E3FBFDF70BF9384681
:10327000FCF7D4FF94F88A00401E10F0FF0084F899
:103280008A0004D184F836602046FFF7B9FFFCF7C6
:10329000C1FF0446FDF7E6F82878401E10F0FF0154
:1032A000297001D1FFF7D2FBFDF7ECF8204609E0C9
:1032B00094F88A00401E10F0FF0084F88A001BD1A9
:1032C00001200EE0FCF7AAFFBDE8F041FDF734BF96
:1032D00094F88A00401E10F0FF0084F88A000BD199
:1032E000022084F8360007E094F88A00401E10F0AF
:1032F000FF0084F88A0003D0FDF7C4F83846E1E700
:103300000320EEE7FDF7BEF83846FCF787FF46F6E8
:103310002D602880BDE8F081A4000020044808B595
:103320000068FEF721FA69460020FEF75FF908BD44
:10333000F80000202DE9F84F984691468B46064646
:10334000FCF768FF0546FDF78DF8594C2078401CC6
:10335000C0B22070012801D1FFF76AFBFDF792F897
:103360002846FCF75BFF0EB9524806680020524F12
:10337000C6F84090A8F8000096F8360046F6C55A00
:10338000082872D2DFE800F033332F2F33332F2F8A
:10339000FDF778F82846FCF741FFFFF725FB04E02E
:1033A000FDF770F82846FCF739FFA8F800A00020C8
:1033B000BDE8F88F6D1C7564FCF72CFF0646FDF721
:1033C00051F82078401E10F0FF00207047D1FFF721
:1033D0003DFB3888F0B3FDF755F83046FCF71EFF8B
:1033E000FFF702FB62E096F83400072813D0756CF3
:1033F000681CDFD1FCF70EFF0546FDF733F8207897
:10340000401E10F0FF002070CAD1FFF71FFB388864
:103410000028C5D0BCE700231A4631461846CDF82F
:103420000090FFF718F9756CFCF7F4FE0646FDF7FF
:1034300019F82078401E10F0FF00207001D1FFF72E
:1034400005FBFDF71FF83046FCF7E8FE5FEA0B408E
:103450002CD401E003E008E0FDF76EFE26E0FDF766
:1034600011F83046FCF7DAFE20E0FCF7D3FE054603
:10347000FCF7F8FF2078401E10F0FF0020700BD101
:10348000FFF7E4FA388838B1FCF7FCFF2846FCF770
:10349000C5FEFFF7A9FA04E0FCF7F4FF2846FCF7A5
:1034A000BDFE46F62D60A8F80000002528467FE7FF
:1034B000A4000020F8000020680000202DE9F04161
:1034C0000D460446FCF7A6FE0746FCF7CBFF334843
:1034D00004B90468016832488C4209D1017839B1D5
:1034E000FCF7D0FF3846FCF799FE46F6635052E0F1
:1034F0000021298094F836100126082944D2DFE8FB
:1035000001F0043133393B3B3B3B05460078401C1E
:10351000C0B22870012801D1FFF78AFAFCF7B2FF88
:103520003846FCF77BFE042084F8360084F88A6075
:103530002046FFF72FFAFCF76DFE0446FCF792FFDA
:103540002878401E10F0FF01297001D1FFF77EFAA4
:10355000FCF798FF4FEA0400FCF760FEBDE8F0417D
:10356000FDF7EABD052000E0062084F8360084F867
:103570008A6005E00720F8E714F88A0F401C2070E5
:10358000FCF780FF3846E7E7FCF77CFF3846FCF79E
:1035900045FE46F62D602880BDE8F081F800002049
:1035A000A400002010B500200146074C074B06E0A0
:1035B00004EBC002401C11609180D18080B21A8857
:1035C0009042F5D310BD0000E81A0020F43E000838
:1035D000F0B5324C47F27E2625680024042A08D034
:1035E000B1B32E4E082A36680E440BD0C0E91361E1
:1035F00015E04A1B521E12F5803F2AD8521CC0E922
:1036000013120CE0826C0A44571B7F1E8F4201D2BA
:10361000C26400E0C664C16C4A1B02658164204A32
:10362000C16C1288B1FBF2F602FB16111D4A89B279
:1036300002EBC102918889B11168F1B1CE6C761BA1
:103640000E65076DB74212D94E6966B13146F5E78E
:10365000FFE7C4640465C4611E80F0BD44618461F9
:10366000012110600BE0C0E90541486105E08D696A
:1036700075B1C0E90515686188619188491C918020
:10368000D58889B28D4200D2D180C2611C80F0BD44
:10369000C0E9051488611060EFE70000DC0000203D
:1036A000F43E0008E81A002010B5C269002A15D0BF
:1036B000002101651368834204D14369136033B16B
:1036C000996104E0D0E90534636103B19C61416113
:1036D0008161C161C1649088401E908010BD00006E
:1036E00010B500200446064B064A04E003EBC00177
:1036F000401CCC8080B211888842F7D310BD0000F6
:10370000E81A0020F43E00082DE9F05FFCF782FD86
:103710000446FCF7A7FE554D2878401CC1B229701D
:10372000012901D1FFF784F9FCF7ACFE2046FCF734
:1037300075FDFCF7F1FEDFF8388107464D49D8F8F2
:1037400000004FF00009401CC8F8000009884FF045
:10375000030AB0FBF1F201FB1200474980B24FF0BF
:10376000040B51F8304074B394F8360066690828A9
:1037700051D2DFE800F05004501150295036E06C6F
:10378000D8F80010421A2265884246D184F8369053
:103790002046FFF735FD3EE0E06CD8F80010421AF5
:1037A0002265884239D1C4F85C90A4F86090FCF797
:1037B000B3FE20642046FEF720FF2046FFF720FDE1
:1037C00084F8369023E028E0E06CD8F80010421A24
:1037D0002265884221D184F836B02046FFF764FF85
:1037E00019E0E06CD8F80010421A2265884214D122
:1037F000C4F85C90A4F86090FCF78EFE206420462C
:10380000FEF7FBFE2046FFF74FFF84F836B084F842
:1038100035A084F834903446A5E7FCF77DFE1749BF
:10382000C01B0A68824200D20860FCF7F3FC044621
:10383000FCF718FE2878401E10F0FF0129700DD10A
:10384000FFF704F90E48008840B1FCF71BFE204644
:10385000FCF7E4FCBDE8F05FFFF7C6B8FCF712FE2A
:103860002046BDE8F05FFCF7D9BC0000A4000020B2
:10387000DC000020F43E0008E81A0020E0000020F0
:10388000680000201CB5084C00216B4601AA0846C0
:10389000FDF772FFBDF800000028F5D1207801285F
:1038A000F2D1FFF731FFEFE75C00002030B50446AE
:1038B0001A4889B00025056019480560FFF772FEB7
:1038C0001848016841B11849184B0A681B689A42A8
:1038D00005D247F2132008E047F2122005E0144A0F
:1038E00013781F2B04D347F21120208009B030BD7C
:1038F0000B2305950695CDE907340E4B0968006842
:103900001B68CDE90103CDE9031510780090002371
:10391000094A0AA10E48FDF765FDE7E7DC00002033
:10392000E0000020E83E0008F03E0008DC3E000811
:10393000E43E0008EC3E00088538000875432F4F30
:10394000532D494949205469636B205461736B00BE
:10395000DC21002030B52A4A89B00021294B1160B2
:10396000294C2A4A1D681DB12468B4FBF5F303E015
:1039700023680A24B3FBF4F313601A46244B274D43
:10398000274C1A60234A1160234A1160002206E086
:1039900005EBC203521C9980D98092B2196023882A
:1039A0009A42F5D31F4B1A6842B11F4A1F4D146843
:1039B0002D68AC4205D247F2483108E047F2473162
:1039C00005E01B4C25781F2D04D347F246310180BA
:1039D00009B030BD0B2505910691CDE9075010685F
:1039E000144A1B681268CDE90301CDE90132207841
:1039F00000900023104A11A11648FDF7F3FCE7E7F9
:103A0000E4000020F83E0008E03E0008F00000203E
:103A1000F4000020EC000020E8000020701D0020D1
:103A2000083F0008FC3E0008043F0008DC3E000898
:103A3000F63E0008003F0008193B000875432F4F71
:103A4000532D4949492054696D6572205461736B47
:103A500000000000A422002070B5022280F82A2075
:103A6000204A012914681ED0016AE1B11E4A21448E
:103A700081611288B1FBF2F302FB13121B4B92B26D
:103A800003EBC202002315687DB1091BC1611168F7
:103A9000D1B18D692D1BCD61C669AE420ED90D69BC
:103AA00045B12946F5E7416AE0E7036143611060EB
:103AB00001200BE0C0E90431086105E04C6964B104
:103AC000C0E90414206148619088401C9080D1882E
:103AD00080B2814200D2D08070BDC0E90413486139
:103AE0001060F1E7EC000020083F0008701D002086
:103AF00010B500200446064B064A04E003EBC00163
:103B0000401CCC8080B211888842F7D310BD0000E1
:103B1000701D0020083F00081CB5DFF89090DFF80A
:103B200090A0244DDFF890B000216B4601AA084612
:103B3000FDF722FE6846FDF73DFBFCF7EDFC06466F
:103B400028684FF00308401C2860B9F80010B0FB4B
:103B5000F1F201FB120080B25AF83040C4B1A06902
:103B600029682769884213D1204600F027F8208D64
:103B7000022808D084F82A80A26812B12046E168A1
:103B800090473C46EAE701212046FFF765FFF3E74F
:103B9000FCF7C2FC841B6846FDF73AFBDBF800101B
:103BA000A142C1D2CBF80040BEE70000083F0008A8
:103BB000701D0020EC000020E800002010B5104A25
:103BC00081691288B1FBF2F302FB13110D4A89B22D
:103BD00002EBC102002314680169844203D1116021
:103BE00029B14B6103E04469216101B14C610121BC
:103BF00080F82A10036143619088401E908010BDB8
:103C0000083F0008701D00200EB5084D02AE1024BC
:103C100001212846FCF7A4FD0022CDE90046C82377
:103C200011461046FDF798FFF2E70000000C014036
:103C3000704730B58FB028216846FCF701FB14218E
:103C40000AA8FCF7FDFA01210804CDE900100024C0
:103C5000029402250491CDE907504FF4E010099039
:103C60006846FCF7F7FE08B172B6FEE70F20CDE913
:103C70000A054FF48060CDE90C4002210AA80E9499
:103C8000FCF716FE002801D072B6FEE70FB030BD7B
:103C90007047FEE70907090E002804DB00F1E02069
:103CA00080F80014704700F00F0000F1E02080F869
:103CB000141D704730B58BB0FCF766FDFFF7B9FFF8
:103CC000FDF784F809A8FDF703F9FCF7A3FA054608
:103CD000FCF7C8FB234C2078401CC1B2217001299D
:103CE00001D1FEF7A5FEFCF7CDFB2846FCF796FABE
:103CF000002009A9032205900690CDE907210C2296
:103D000002928021CDE90310174B0420CDE9000376
:103D100015480023154A16A1C838FDF763FBFCF7C8
:103D200079FA0546FCF79EFB2078401E10F0FF0153
:103D300021700CD1FEF78AFE1048008838B1FCF7DC
:103D4000A1FB2846FCF76AFAFEF74EFE04E0FCF7FA
:103D500099FB2846FCF762FA09A8FDF793FA0BB025
:103D6000002030BDA4000020C8010020813D0008D3
:103D70007374617274207461736B000068000020BA
:103D80002DE9F0438BB0FCF703FBFCF743FA044644
:103D9000FCF768FBDFF8BC9099F80000401CC2B249
:103DA00089F80020012A01D1FEF742FEFCF76AFBE8
:103DB0002046FCF733FA00244FF00C0806A809AEA1
:103DC0000325CDF80880059480E8700022498027FB
:103DD000CDE900512048CDE9037423461F4A20A1B4
:103DE000C838FDF7FFFA06A8059480E870001F495F
:103DF00002208DE803011D48CDE9037400231C4A0D
:103E00001CA1C838FDF7EEFA09A91D48FFF756FBBB
:103E1000FCF700FA0446FCF725FB99F80000401E69
:103E200010F0FF0289F800200ED1FEF70FFE1548B2
:103E3000008848B1FCF726FB2046FCF7EFF9FEF7B7
:103E4000D3FD0BB0BDE8F083FCF71CFB2046FCF76C
:103E5000E5F9F6E7A400002090040020A10D000879
:103E60004C454430207461736B00000058070020FB
:103E7000093C000850574D31207461736B000000FD
:103E80000001002068000020000000000000000089
:103E90000102030406070809680900200C0000005D
:103EA00080000000680B00200A000000A80C002021
:103EB0000C00000080000000A80E00208000000020
:103EC00064000000A81000200B0000000A000000A1
:103ED000E81600200C0000008000000040000000F8
:103EE000E80300000A000000E81800200C000000B1
:103EF0008000000011000B000A000000701B002071
:103F00000C00000080000000110000002C3F0008A1
:103F100000000020000100006C0100082C40000897
:103F200000010020D02800008801000801000000E6
:103F300010000000000000000024F4000000000059
:103F40000000000000000000000000000000000071
:103F50000000000000000000000000000000000061
:103F60000000000000000000000000000000000051
:103F70000000000000000000000000000000000041
:103F80000000000000000000000000000000000031
:103F90000000000000000000000000000000000021
:103FA0000000000000000000000000000000000011
:103FB0000000000000000000000000000000000001
:103FC00000000000000000000000000000000000F1
:103FD00000000000000000000000000000000000E1
:103FE00000000000000000000000000000000000D1
:103FF00000000000000000000000000000000000C1
:1040000000000000000000000000000000000000B0
:1040100000000000000000000000000000000000A0
:0C40200000000000000000000000000094
:0400000508000131BD
:00000001FF
